{
  "address": "0xac0ea884d2763ab2a73851820dd0e6a8f1caf8e0",
  "abi": [
    {
      "inputs": [
        {
          "components": [
            {
              "internalType": "uint256",
              "name": "startTime",
              "type": "uint256"
            },
            {
              "internalType": "uint256",
              "name": "commitPhaseDuration",
              "type": "uint256"
            },
            {
              "internalType": "uint256",
              "name": "revealPhaseDuration",
              "type": "uint256"
            },
            {
              "internalType": "contract ITime",
              "name": "time",
              "type": "address"
            },
            {
              "internalType": "contract IERC721",
              "name": "avatars",
              "type": "address"
            },
            {
              "internalType": "bytes32",
              "name": "genesisHash",
              "type": "bytes32"
            },
            {
              "internalType": "uint256",
              "name": "numSpaceshipsOnActivation",
              "type": "uint256"
            },
            {
              "internalType": "uint256",
              "name": "productionCapAsDuration",
              "type": "uint256"
            }
          ],
          "internalType": "struct UsingGameTypes.Config",
          "name": "config",
          "type": "tuple"
        }
      ],
      "stateMutability": "nonpayable",
      "type": "constructor"
    },
    {
      "inputs": [
        {
          "internalType": "uint256",
          "name": "avatarID",
          "type": "uint256"
        }
      ],
      "name": "AvatarStillAttachedToEmpire",
      "type": "error"
    },
    {
      "inputs": [],
      "name": "CanStillReveal",
      "type": "error"
    },
    {
      "inputs": [],
      "name": "CommitmentHashNotMatching",
      "type": "error"
    },
    {
      "inputs": [
        {
          "internalType": "uint256",
          "name": "empireID",
          "type": "uint256"
        }
      ],
      "name": "EmpireHasAlreadyAnAvatar",
      "type": "error"
    },
    {
      "inputs": [],
      "name": "GameNotStarted",
      "type": "error"
    },
    {
      "inputs": [],
      "name": "InCommitmentPhase",
      "type": "error"
    },
    {
      "inputs": [],
      "name": "InRevealPhase",
      "type": "error"
    },
    {
      "inputs": [],
      "name": "InvalidData",
      "type": "error"
    },
    {
      "inputs": [],
      "name": "InvalidEpoch",
      "type": "error"
    },
    {
      "inputs": [],
      "name": "NoCommitmentToCancel",
      "type": "error"
    },
    {
      "inputs": [
        {
          "internalType": "address",
          "name": "account",
          "type": "address"
        }
      ],
      "name": "NotAuthorizedController",
      "type": "error"
    },
    {
      "inputs": [
        {
          "internalType": "address",
          "name": "account",
          "type": "address"
        }
      ],
      "name": "NotAuthorizedOwner",
      "type": "error"
    },
    {
      "inputs": [],
      "name": "NothingToReveal",
      "type": "error"
    },
    {
      "inputs": [],
      "name": "OnlyAvatarsAreAccepted",
      "type": "error"
    },
    {
      "inputs": [],
      "name": "PreviousCommitmentNotRevealed",
      "type": "error"
    },
    {
      "anonymous": false,
      "inputs": [
        {
          "indexed": true,
          "internalType": "uint256",
          "name": "empireID",
          "type": "uint256"
        },
        {
          "indexed": true,
          "internalType": "uint64",
          "name": "epoch",
          "type": "uint64"
        }
      ],
      "name": "CommitmentCancelled",
      "type": "event"
    },
    {
      "anonymous": false,
      "inputs": [
        {
          "indexed": true,
          "internalType": "uint256",
          "name": "empireID",
          "type": "uint256"
        },
        {
          "indexed": true,
          "internalType": "uint64",
          "name": "epoch",
          "type": "uint64"
        },
        {
          "indexed": false,
          "internalType": "bytes24",
          "name": "commitmentHash",
          "type": "bytes24"
        }
      ],
      "name": "CommitmentMade",
      "type": "event"
    },
    {
      "anonymous": false,
      "inputs": [
        {
          "indexed": true,
          "internalType": "uint256",
          "name": "empireID",
          "type": "uint256"
        },
        {
          "indexed": true,
          "internalType": "uint64",
          "name": "epoch",
          "type": "uint64"
        },
        {
          "indexed": false,
          "internalType": "bytes24",
          "name": "commitmentHash",
          "type": "bytes24"
        },
        {
          "components": [
            {
              "internalType": "enum UsingGameTypes.ActionType",
              "name": "actionType",
              "type": "uint8"
            },
            {
              "internalType": "uint128",
              "name": "data",
              "type": "uint128"
            }
          ],
          "indexed": false,
          "internalType": "struct UsingGameTypes.Action[]",
          "name": "actions",
          "type": "tuple[]"
        }
      ],
      "name": "CommitmentRevealed",
      "type": "event"
    },
    {
      "anonymous": false,
      "inputs": [
        {
          "indexed": true,
          "internalType": "uint256",
          "name": "empireID",
          "type": "uint256"
        },
        {
          "indexed": true,
          "internalType": "uint64",
          "name": "epoch",
          "type": "uint64"
        }
      ],
      "name": "CommitmentVoid",
      "type": "event"
    },
    {
      "anonymous": false,
      "inputs": [
        {
          "indexed": true,
          "internalType": "uint256",
          "name": "empireID",
          "type": "uint256"
        },
        {
          "indexed": true,
          "internalType": "uint64",
          "name": "zone",
          "type": "uint64"
        },
        {
          "indexed": true,
          "internalType": "uint64",
          "name": "epoch",
          "type": "uint64"
        },
        {
          "indexed": false,
          "internalType": "uint256",
          "name": "fleetID",
          "type": "uint256"
        },
        {
          "indexed": false,
          "internalType": "uint256",
          "name": "toStarSystemID",
          "type": "uint256"
        }
      ],
      "name": "FleetArrived",
      "type": "event"
    },
    {
      "anonymous": false,
      "inputs": [
        {
          "indexed": true,
          "internalType": "uint256",
          "name": "empireID",
          "type": "uint256"
        },
        {
          "indexed": true,
          "internalType": "uint64",
          "name": "zone",
          "type": "uint64"
        },
        {
          "indexed": true,
          "internalType": "uint64",
          "name": "epoch",
          "type": "uint64"
        },
        {
          "indexed": false,
          "internalType": "uint256",
          "name": "fromStarSystemID",
          "type": "uint256"
        },
        {
          "indexed": false,
          "internalType": "uint256",
          "name": "fleetID",
          "type": "uint256"
        },
        {
          "indexed": false,
          "internalType": "uint256",
          "name": "numSpaceships",
          "type": "uint256"
        }
      ],
      "name": "FleetSent",
      "type": "event"
    },
    {
      "anonymous": false,
      "inputs": [
        {
          "indexed": true,
          "internalType": "uint256",
          "name": "empireID",
          "type": "uint256"
        },
        {
          "indexed": false,
          "internalType": "uint64",
          "name": "epoch",
          "type": "uint64"
        },
        {
          "indexed": false,
          "internalType": "bytes24",
          "name": "commitmentHash",
          "type": "bytes24"
        }
      ],
      "name": "PreviousCommitmentNotRevealedEvent",
      "type": "event"
    },
    {
      "anonymous": false,
      "inputs": [
        {
          "indexed": true,
          "internalType": "uint256",
          "name": "empireID",
          "type": "uint256"
        },
        {
          "indexed": true,
          "internalType": "uint64",
          "name": "zone",
          "type": "uint64"
        },
        {
          "indexed": true,
          "internalType": "uint64",
          "name": "epoch",
          "type": "uint64"
        },
        {
          "indexed": false,
          "internalType": "uint256",
          "name": "starSystemID",
          "type": "uint256"
        },
        {
          "indexed": false,
          "internalType": "uint256",
          "name": "stake",
          "type": "uint256"
        }
      ],
      "name": "StarSystemAcquired",
      "type": "event"
    },
    {
      "anonymous": false,
      "inputs": [
        {
          "indexed": true,
          "internalType": "uint256",
          "name": "empireID",
          "type": "uint256"
        },
        {
          "indexed": true,
          "internalType": "uint64",
          "name": "zone",
          "type": "uint64"
        },
        {
          "indexed": true,
          "internalType": "uint64",
          "name": "epoch",
          "type": "uint64"
        },
        {
          "indexed": false,
          "internalType": "uint256",
          "name": "starSystemID",
          "type": "uint256"
        },
        {
          "components": [
            {
              "internalType": "uint256",
              "name": "empireID",
              "type": "uint256"
            },
            {
              "internalType": "uint64",
              "name": "numSpaceships",
              "type": "uint64"
            },
            {
              "internalType": "bool",
              "name": "isActive",
              "type": "bool"
            },
            {
              "internalType": "uint64",
              "name": "lastUpdatedEpoch",
              "type": "uint64"
            }
          ],
          "indexed": false,
          "internalType": "struct UsingGameTypes.StarSystemState",
          "name": "state",
          "type": "tuple"
        }
      ],
      "name": "StarSystemUpdated",
      "type": "event"
    },
    {
      "inputs": [
        {
          "internalType": "uint256",
          "name": "empireID",
          "type": "uint256"
        }
      ],
      "name": "acknowledgeMissedReveal",
      "outputs": [],
      "stateMutability": "nonpayable",
      "type": "function"
    },
    {
      "inputs": [
        {
          "internalType": "uint256",
          "name": "empireID",
          "type": "uint256"
        },
        {
          "components": [
            {
              "internalType": "enum UsingGameTypes.ActionType",
              "name": "actionType",
              "type": "uint8"
            },
            {
              "internalType": "uint128",
              "name": "data",
              "type": "uint128"
            }
          ],
          "internalType": "struct UsingGameTypes.Action[]",
          "name": "actions",
          "type": "tuple[]"
        },
        {
          "internalType": "bytes32",
          "name": "secret",
          "type": "bytes32"
        },
        {
          "internalType": "address payable",
          "name": "payee",
          "type": "address"
        }
      ],
      "name": "reveal",
      "outputs": [],
      "stateMutability": "payable",
      "type": "function"
    }
  ],
  "contractName": "GameReveal",
  "sourceName": "src/game/routes/GameReveal.sol",
  "bytecode": "0x610180604052348015610010575f5ffd5b5060405161106b38038061106b83398101604081905261002f9161009f565b60608101516001600160a01b039081166080908152825160a0908152602084015160c0908152604085015160e09081529285015190931661010052830151610120529082015161014052015161016052610145565b80516001600160a01b038116811461009a575f5ffd5b919050565b5f6101008284031280156100b1575f5ffd5b5060405161010081016001600160401b03811182821017156100e157634e487b7160e01b5f52604160045260245ffd5b60409081528351825260208085015190830152838101519082015261010860608401610084565b606082015261011960808401610084565b608082015260a0838101519082015260c0808401519082015260e0928301519281019290925250919050565b60805160a05160c05160e05161010051610120516101405161016051610ebf6101ac5f395f50505f6108f401525f50505f50505f61047a01525f818161049b015261056c01525f81816104ce015261052c01525f81816106b601526106f60152610ebf5ff3fe608060405260043610610028575f3560e01c80637020b4631461002c578063c4928f791461004d575b5f5ffd5b348015610037575f5ffd5b5061004b610046366004610a2d565b610060565b005b61004b61005b366004610a6c565b61006c565b610069816100dc565b50565b61007885858585610215565b73ffffffffffffffffffffffffffffffffffffffff8116156100d55760405173ffffffffffffffffffffffffffffffffffffffff8216903480156108fc02915f818181858888f193505050501580156100d3573d5f5f3e3d5ffd5b505b5050505050565b5f81815260056020526040812080549091780100000000000000000000000000000000000000000000000090910467ffffffffffffffff16900361014c576040517f6599c9aa00000000000000000000000000000000000000000000000000000000815260040160405180910390fd5b5f610155610472565b50825490915067ffffffffffffffff808316780100000000000000000000000000000000000000000000000090920416036101bc576040517f175868d700000000000000000000000000000000000000000000000000000000815260040160405180910390fd5b815477ffffffffffffffffffffffffffffffffffffffffffffffff16825560405167ffffffffffffffff82169084907f2a5049124236181937ab55f90059005810a4645d620abe00ec963bea4e24d62f905f90a3505050565b5f5f61021f610472565b91509150801561025b576040517f24f7f40f00000000000000000000000000000000000000000000000000000000815260040160405180910390fd5b5f86815260056020526040812080549091780100000000000000000000000000000000000000000000000090910467ffffffffffffffff1690036102cb576040517f6599c9aa00000000000000000000000000000000000000000000000000000000815260040160405180910390fd5b805467ffffffffffffffff8481167801000000000000000000000000000000000000000000000000909204161461032e576040517fd5b25b6300000000000000000000000000000000000000000000000000000000815260040160405180910390fd5b80546040805160208089028201810183528882529290911b9161038f9183918a908a9081905f9085015b828210156103845761037560408302860136819003810190610b2d565b81526020019060010190610358565b5050505050876105bf565b5f5f6103ed8a878b8b808060200260200160405190810160405280939291908181526020015f905b828210156103e3576103d460408302860136819003810190610b2d565b815260200190600101906103b7565b505050505061066c565b915091508567ffffffffffffffff168a7f26e729e5cb36539a17a4e8c198bb0207665de640463f8d6b7a80a1cfe8089b56858c8c5f90879261043193929190610bad565b60405161044093929190610c3e565b60405180910390a35050815477ffffffffffffffffffffffffffffffffffffffffffffffff1690915550505050505050565b5f80806104bf7f00000000000000000000000000000000000000000000000000000000000000007f0000000000000000000000000000000000000000000000000000000000000000610d00565b90505f6104ca6106b3565b90507f0000000000000000000000000000000000000000000000000000000000000000811015610526576040517f3a5f7b5700000000000000000000000000000000000000000000000000000000815260040160405180910390fd5b5f6105517f000000000000000000000000000000000000000000000000000000000000000083610d19565b905061055d8382610d2c565b610568906002610d00565b94507f000000000000000000000000000000000000000000000000000000000000000083610597600288610d64565b67ffffffffffffffff166105ab9190610d84565b6105b59083610d19565b1093505050509091565b7fffffffffffffffffffffffffffffffffffffffffffffffff000000000000000083166105eb57505050565b5f81836040516020016105ff929190610d9b565b6040516020818303038152906040528051906020012090508067ffffffffffffffff19168467ffffffffffffffff191614610666576040517fd13415b500000000000000000000000000000000000000000000000000000000815260040160405180910390fd5b50505050565b6040805160808101825284815267ffffffffffffffff841660208201525f9181018290526060810182905281906106a38185610786565b8060600151915050935093915050565b5f7f000000000000000000000000000000000000000000000000000000000000000073ffffffffffffffffffffffffffffffffffffffff166106f457504290565b7f000000000000000000000000000000000000000000000000000000000000000073ffffffffffffffffffffffffffffffffffffffff1663b80777ea6040518163ffffffff1660e01b8152600401602060405180830381865afa15801561075d573d5f5f3e3d5ffd5b505050506040513d601f19601f820116820180604052508101906107819190610e0e565b905090565b5f805b8251811015610666575f8382815181106107a5576107a5610e25565b602002602001015190505f60028111156107c1576107c1610bd8565b815160028111156107d4576107d4610bd8565b036107ec576107e7858260200151610855565b61083c565b60018151600281111561080157610801610bd8565b03610814576107e785826020015161093d565b60028151600281111561082957610829610bd8565b0361083c5761083c858260200151610a10565b84604001511561084c5750610666565b50600101610789565b67ffffffffffffffff81165f908152600460205260408120805483920361091b57835181556001810180546020860151680100000000000000007fffffffffffffffffffffffffffffff000000000000000000ffffffffffffffff909216690100000000000000000067ffffffffffffffff9283160217919091177fffffffffffffffffffffffffffffffffffffffffffffffff0000000000000000167f0000000000000000000000000000000000000000000000000000000000000000919091161790555b6060840180519061092b82610e52565b905250505f6040909301929092525050565b67ffffffffffffffff81165f908152600460205260409081902083518154849363ffffffff9085901c811693606086901c909116929091036109ea57600181015467ffffffffffffffff808516911610156109a35750505f604090940193909352505050565b6001810180548491905f906109c390849067ffffffffffffffff16610d64565b92506101000a81548167ffffffffffffffff021916908367ffffffffffffffff1602179055505b5f606087018051906109fb82610e52565b905250505f6040909601959095525050505050565b60608201805190610a2082610e52565b905250505f604090910152565b5f60208284031215610a3d575f5ffd5b5035919050565b803573ffffffffffffffffffffffffffffffffffffffff81168114610a67575f5ffd5b919050565b5f5f5f5f5f60808688031215610a80575f5ffd5b85359450602086013567ffffffffffffffff811115610a9d575f5ffd5b8601601f81018813610aad575f5ffd5b803567ffffffffffffffff811115610ac3575f5ffd5b8860208260061b8401011115610ad7575f5ffd5b6020919091019450925060408601359150610af460608701610a44565b90509295509295909350565b803560038110610a67575f5ffd5b80356fffffffffffffffffffffffffffffffff81168114610a67575f5ffd5b5f6040828403128015610b3e575f5ffd5b506040805190810167ffffffffffffffff81118282101715610b87577f4e487b71000000000000000000000000000000000000000000000000000000005f52604160045260245ffd5b604052610b9383610b00565b8152610ba160208401610b0e565b60208201529392505050565b5f5f85851115610bbb575f5ffd5b83861115610bc7575f5ffd5b5050600683901b0193919092039150565b7f4e487b71000000000000000000000000000000000000000000000000000000005f52602160045260245ffd5b60038110610c3a577f4e487b71000000000000000000000000000000000000000000000000000000005f52602160045260245ffd5b9052565b7fffffffffffffffffffffffffffffffffffffffffffffffff00000000000000008416815260406020820181905281018290525f8360608301825b85811015610cc857610c9382610c8e85610b00565b610c05565b6fffffffffffffffffffffffffffffffff610cb060208501610b0e565b16602083015260409283019290910190600101610c79565b509695505050505050565b7f4e487b71000000000000000000000000000000000000000000000000000000005f52601160045260245ffd5b80820180821115610d1357610d13610cd3565b92915050565b81810381811115610d1357610d13610cd3565b5f82610d5f577f4e487b71000000000000000000000000000000000000000000000000000000005f52601260045260245ffd5b500490565b67ffffffffffffffff8281168282160390811115610d1357610d13610cd3565b8082028115828204841417610d1357610d13610cd3565b5f60408201848352604060208401528084518083526060850191506020860192505f5b81811015610e02578351610dd3848251610c05565b6020908101516fffffffffffffffffffffffffffffffff16848201529390930192604090920191600101610dbe565b50909695505050505050565b5f60208284031215610e1e575f5ffd5b5051919050565b7f4e487b71000000000000000000000000000000000000000000000000000000005f52603260045260245ffd5b5f7fffffffffffffffffffffffffffffffffffffffffffffffffffffffffffffffff8203610e8257610e82610cd3565b506001019056fea2646970667358221220fbc423b29d2e68f8e89cc18e00920d63cf02ef65fa9b0797e9ffda219a294b1664736f6c634300081c0033",
  "linkReferences": {},
  "deployedLinkReferences": {},
  "immutableReferences": {
    "14798": [
      {
        "length": 32,
        "start": 1230
      },
      {
        "length": 32,
        "start": 1324
      }
    ],
    "14801": [
      {
        "length": 32,
        "start": 1179
      },
      {
        "length": 32,
        "start": 1388
      }
    ],
    "14804": [
      {
        "length": 32,
        "start": 1146
      }
    ],
    "14814": [
      {
        "length": 32,
        "start": 2292
      }
    ],
    "14904": [
      {
        "length": 32,
        "start": 1718
      },
      {
        "length": 32,
        "start": 1782
      }
    ]
  },
  "inputSourceName": "project/src/game/routes/GameReveal.sol",
  "devdoc": {
    "errors": {
      "AvatarStillAttachedToEmpire(uint256)": [
        {
          "params": {
            "avatarID": "the id of the avatar"
          }
        }
      ],
      "EmpireHasAlreadyAnAvatar(uint256)": [
        {
          "params": {
            "empireID": "the id of the empire"
          }
        }
      ]
    },
    "events": {
      "CommitmentCancelled(uint256,uint64)": {
        "params": {
          "empireID": "empire whose commitment is cancelled",
          "epoch": "epoch number on which this commit belongs to"
        }
      },
      "CommitmentMade(uint256,uint64,bytes24)": {
        "params": {
          "commitmentHash": "the hash of moves",
          "empireID": "empire whose commitment is made",
          "epoch": "epoch number on which this commit belongs to"
        }
      },
      "CommitmentRevealed(uint256,uint64,bytes24,(uint8,uint128)[])": {
        "params": {
          "actions": "the actions",
          "commitmentHash": "the hash of the moves",
          "empireID": "empire whose action is commited",
          "epoch": "epoch number on which this commit belongs to"
        }
      },
      "CommitmentVoid(uint256,uint64)": {
        "params": {
          "empireID": "the empire that made the commitment",
          "epoch": "epoch number on which this commit belongs to"
        }
      },
      "StarSystemAcquired(uint256,uint64,uint64,uint256,uint256)": {
        "params": {
          "empireID": "the id of the empire activating the star system",
          "epoch": "at which the acquisition happe",
          "stake": "amount of take that the star system require",
          "starSystemID": "star system being acquired",
          "zone": "on which the star system is located"
        }
      }
    },
    "kind": "dev",
    "methods": {},
    "version": 1
  },
  "evm": {
    "gasEstimates": {
      "creation": {
        "codeDepositCost": "755000",
        "executionCost": "infinite",
        "totalCost": "infinite"
      },
      "external": {
        "acknowledgeMissedReveal(uint256)": "infinite",
        "reveal(uint256,(uint8,uint128)[],bytes32,address)": "infinite"
      }
    }
  },
  "storageLayout": {
    "storage": [
      {
        "astId": 14826,
        "contract": "project/src/game/routes/GameReveal.sol:GameReveal",
        "label": "_avatars",
        "offset": 0,
        "slot": "0",
        "type": "t_mapping(t_uint256,t_struct(Avatar)13559_storage)"
      },
      {
        "astId": 14831,
        "contract": "project/src/game/routes/GameReveal.sol:GameReveal",
        "label": "_empires",
        "offset": 0,
        "slot": "1",
        "type": "t_mapping(t_uint256,t_struct(Empire)13556_storage)"
      },
      {
        "astId": 14836,
        "contract": "project/src/game/routes/GameReveal.sol:GameReveal",
        "label": "_ownedEmpires",
        "offset": 0,
        "slot": "2",
        "type": "t_mapping(t_address,t_array(t_uint256)dyn_storage)"
      },
      {
        "astId": 14840,
        "contract": "project/src/game/routes/GameReveal.sol:GameReveal",
        "label": "_ownedEmpiresIndex",
        "offset": 0,
        "slot": "3",
        "type": "t_mapping(t_uint256,t_uint256)"
      },
      {
        "astId": 14845,
        "contract": "project/src/game/routes/GameReveal.sol:GameReveal",
        "label": "_starSystems",
        "offset": 0,
        "slot": "4",
        "type": "t_mapping(t_uint64,t_struct(StarSystemState)13568_storage)"
      },
      {
        "astId": 14850,
        "contract": "project/src/game/routes/GameReveal.sol:GameReveal",
        "label": "_commitments",
        "offset": 0,
        "slot": "5",
        "type": "t_mapping(t_uint256,t_struct(Commitment)13573_storage)"
      }
    ],
    "types": {
      "t_address": {
        "encoding": "inplace",
        "label": "address",
        "numberOfBytes": "20"
      },
      "t_array(t_uint256)dyn_storage": {
        "base": "t_uint256",
        "encoding": "dynamic_array",
        "label": "uint256[]",
        "numberOfBytes": "32"
      },
      "t_bool": {
        "encoding": "inplace",
        "label": "bool",
        "numberOfBytes": "1"
      },
      "t_bytes24": {
        "encoding": "inplace",
        "label": "bytes24",
        "numberOfBytes": "24"
      },
      "t_mapping(t_address,t_array(t_uint256)dyn_storage)": {
        "encoding": "mapping",
        "key": "t_address",
        "label": "mapping(address => uint256[])",
        "numberOfBytes": "32",
        "value": "t_array(t_uint256)dyn_storage"
      },
      "t_mapping(t_uint256,t_struct(Avatar)13559_storage)": {
        "encoding": "mapping",
        "key": "t_uint256",
        "label": "mapping(uint256 => struct UsingGameTypes.Avatar)",
        "numberOfBytes": "32",
        "value": "t_struct(Avatar)13559_storage"
      },
      "t_mapping(t_uint256,t_struct(Commitment)13573_storage)": {
        "encoding": "mapping",
        "key": "t_uint256",
        "label": "mapping(uint256 => struct UsingGameTypes.Commitment)",
        "numberOfBytes": "32",
        "value": "t_struct(Commitment)13573_storage"
      },
      "t_mapping(t_uint256,t_struct(Empire)13556_storage)": {
        "encoding": "mapping",
        "key": "t_uint256",
        "label": "mapping(uint256 => struct UsingGameTypes.Empire)",
        "numberOfBytes": "32",
        "value": "t_struct(Empire)13556_storage"
      },
      "t_mapping(t_uint256,t_uint256)": {
        "encoding": "mapping",
        "key": "t_uint256",
        "label": "mapping(uint256 => uint256)",
        "numberOfBytes": "32",
        "value": "t_uint256"
      },
      "t_mapping(t_uint64,t_struct(StarSystemState)13568_storage)": {
        "encoding": "mapping",
        "key": "t_uint64",
        "label": "mapping(uint64 => struct UsingGameTypes.StarSystemState)",
        "numberOfBytes": "32",
        "value": "t_struct(StarSystemState)13568_storage"
      },
      "t_struct(Avatar)13559_storage": {
        "encoding": "inplace",
        "label": "struct UsingGameTypes.Avatar",
        "members": [
          {
            "astId": 13558,
            "contract": "project/src/game/routes/GameReveal.sol:GameReveal",
            "label": "empire",
            "offset": 0,
            "slot": "0",
            "type": "t_uint256"
          }
        ],
        "numberOfBytes": "32"
      },
      "t_struct(Commitment)13573_storage": {
        "encoding": "inplace",
        "label": "struct UsingGameTypes.Commitment",
        "members": [
          {
            "astId": 13570,
            "contract": "project/src/game/routes/GameReveal.sol:GameReveal",
            "label": "hash",
            "offset": 0,
            "slot": "0",
            "type": "t_bytes24"
          },
          {
            "astId": 13572,
            "contract": "project/src/game/routes/GameReveal.sol:GameReveal",
            "label": "epoch",
            "offset": 24,
            "slot": "0",
            "type": "t_uint64"
          }
        ],
        "numberOfBytes": "32"
      },
      "t_struct(Empire)13556_storage": {
        "encoding": "inplace",
        "label": "struct UsingGameTypes.Empire",
        "members": [
          {
            "astId": 13551,
            "contract": "project/src/game/routes/GameReveal.sol:GameReveal",
            "label": "owner",
            "offset": 0,
            "slot": "0",
            "type": "t_address"
          },
          {
            "astId": 13553,
            "contract": "project/src/game/routes/GameReveal.sol:GameReveal",
            "label": "controller",
            "offset": 0,
            "slot": "1",
            "type": "t_address"
          },
          {
            "astId": 13555,
            "contract": "project/src/game/routes/GameReveal.sol:GameReveal",
            "label": "avatarID",
            "offset": 0,
            "slot": "2",
            "type": "t_uint256"
          }
        ],
        "numberOfBytes": "96"
      },
      "t_struct(StarSystemState)13568_storage": {
        "encoding": "inplace",
        "label": "struct UsingGameTypes.StarSystemState",
        "members": [
          {
            "astId": 13561,
            "contract": "project/src/game/routes/GameReveal.sol:GameReveal",
            "label": "empireID",
            "offset": 0,
            "slot": "0",
            "type": "t_uint256"
          },
          {
            "astId": 13563,
            "contract": "project/src/game/routes/GameReveal.sol:GameReveal",
            "label": "numSpaceships",
            "offset": 0,
            "slot": "1",
            "type": "t_uint64"
          },
          {
            "astId": 13565,
            "contract": "project/src/game/routes/GameReveal.sol:GameReveal",
            "label": "isActive",
            "offset": 8,
            "slot": "1",
            "type": "t_bool"
          },
          {
            "astId": 13567,
            "contract": "project/src/game/routes/GameReveal.sol:GameReveal",
            "label": "lastUpdatedEpoch",
            "offset": 9,
            "slot": "1",
            "type": "t_uint64"
          }
        ],
        "numberOfBytes": "64"
      },
      "t_uint256": {
        "encoding": "inplace",
        "label": "uint256",
        "numberOfBytes": "32"
      },
      "t_uint64": {
        "encoding": "inplace",
        "label": "uint64",
        "numberOfBytes": "8"
      }
    }
  },
  "userdoc": {
    "errors": {
      "AvatarStillAttachedToEmpire(uint256)": [
        {
          "notice": "happen when attempting to withdraw an avatar still in command of an empire"
        }
      ],
      "CanStillReveal()": [
        {
          "notice": "Player have to reveal if they can prevent player from acknowledging missed reveal if there is still time to reveal."
        }
      ],
      "CommitmentHashNotMatching()": [
        {
          "notice": "Player have to reveal their commitment using the exact same move values  If they provide different value, the commitment hash will differ and Game will reject their reveal."
        }
      ],
      "EmpireHasAlreadyAnAvatar(uint256)": [
        {
          "notice": "happen when attempting to withdraw an avatar still in command of an empire"
        }
      ],
      "GameNotStarted()": [
        {
          "notice": "Game has not started yet, can't perform any action"
        }
      ],
      "InCommitmentPhase()": [
        {
          "notice": "When in Commit phase, player can make new commitment but they cannot reveal their move yet."
        }
      ],
      "InRevealPhase()": [
        {
          "notice": "When in Reveal phase, it is not possible to commit new moves or cancel previous commitment  During Reveal phase, players have to reveal their commitment, if not already done."
        }
      ],
      "InvalidData()": [
        {
          "notice": "happen when transfering an avatar with invalid data"
        }
      ],
      "InvalidEpoch()": [
        {
          "notice": "Player can only reveal their move in the same epoch they commited.abi  If a player reveal later it can only do to minimize the reserve burn cost by calling : `acknowledgeMissedReveal`"
        }
      ],
      "NoCommitmentToCancel()": [
        {
          "notice": "There is no commitment registered, cannot cancel."
        }
      ],
      "NotAuthorizedController(address)": [
        {
          "notice": "happen when an unauthorized account attempt to control an avatar"
        }
      ],
      "NotAuthorizedOwner(address)": [
        {
          "notice": "happen when an unauthorized account attempt to withdraw an avatar"
        }
      ],
      "NothingToReveal()": [
        {
          "notice": "Player can only reveal moves they commited."
        }
      ],
      "OnlyAvatarsAreAccepted()": [
        {
          "notice": "happen when attempting to send a non-avatar ERC721 to the game"
        }
      ],
      "PreviousCommitmentNotRevealed()": [
        {
          "notice": "Previous commitment need to be revealed before making a new one. Even if the corresponding reveal phase has passed.\\  It is also not possible to withdraw any amount from reserve until the commitment is revealed.\\If player lost the information to reveal, it can acknowledge failure which will burn all its reserve.\\"
        }
      ]
    },
    "events": {
      "CommitmentCancelled(uint256,uint64)": {
        "notice": "A player has cancelled its current commitment (before it reached the reveal phase)"
      },
      "CommitmentMade(uint256,uint64,bytes24)": {
        "notice": "A player has commited to make some actions and reveal them on the reveal phase"
      },
      "CommitmentRevealed(uint256,uint64,bytes24,(uint8,uint128)[])": {
        "notice": "Player has revealed its previous commitment"
      },
      "CommitmentVoid(uint256,uint64)": {
        "notice": "A player has acknowledged its failure to reveal its previous commitment"
      },
      "StarSystemAcquired(uint256,uint64,uint64,uint256,uint256)": {
        "notice": "A star system has been activated"
      }
    },
    "kind": "user",
    "methods": {},
    "version": 1
  },
  "argsData": "0x0000000000000000000000000000000000000000000000000000000000000000000000000000000000000000000000000000000000000000000000000000001400000000000000000000000000000000000000000000000000000000000000030000000000000000000000000000000000000000000000000000000000000000000000000000000000000000ad994dedaab665ce5aad2a333253e30708087149000000000000000000000000000000000000000000000000000000000000000000000000000000000000000000000000000000000000000000000000000186a0000000000000000000000000000000000000000000000000000000000003f480",
  "transaction": {
    "nonce": "0x3",
    "hash": "0x1264a11bf0289335279bac9b91bdf03cb2090912f62f2a35c933c93b6a0503ad",
    "origin": "0x61c461ecc993aadeb7e4b47e96d1b8cc37314b20"
  }
}